{
  "address": "0x5FbDB2315678afecb367f032d93F642f64180aa3",
  "abi": [
    {
      "inputs": [
        {
          "internalType": "address",
          "name": "initialOwner",
          "type": "address"
        }
      ],
      "stateMutability": "nonpayable",
      "type": "constructor"
    },
    {
      "inputs": [
        {
          "internalType": "address",
          "name": "owner",
          "type": "address"
        }
      ],
      "name": "OwnableInvalidOwner",
      "type": "error"
    },
    {
      "inputs": [
        {
          "internalType": "address",
          "name": "account",
          "type": "address"
        }
      ],
      "name": "OwnableUnauthorizedAccount",
      "type": "error"
    },
    {
      "anonymous": false,
      "inputs": [
        {
          "indexed": true,
          "internalType": "address",
          "name": "previousOwner",
          "type": "address"
        },
        {
          "indexed": true,
          "internalType": "address",
          "name": "newOwner",
          "type": "address"
        }
      ],
      "name": "OwnershipTransferred",
      "type": "event"
    },
    {
      "anonymous": false,
      "inputs": [
        {
          "indexed": true,
          "internalType": "uint256",
          "name": "proposalId",
          "type": "uint256"
        },
        {
          "indexed": false,
          "internalType": "string",
          "name": "datasetHash",
          "type": "string"
        },
        {
          "indexed": false,
          "internalType": "uint256",
          "name": "totalTrainings",
          "type": "uint256"
        }
      ],
      "name": "TrainingStarted",
      "type": "event"
    },
    {
      "inputs": [],
      "name": "owner",
      "outputs": [
        {
          "internalType": "address",
          "name": "",
          "type": "address"
        }
      ],
      "stateMutability": "view",
      "type": "function"
    },
    {
      "inputs": [],
      "name": "renounceOwnership",
      "outputs": [],
      "stateMutability": "nonpayable",
      "type": "function"
    },
    {
      "inputs": [
        {
          "internalType": "uint256",
          "name": "proposalId",
          "type": "uint256"
        },
        {
          "internalType": "string",
          "name": "datasetHash",
          "type": "string"
        }
      ],
      "name": "trainModel",
      "outputs": [],
      "stateMutability": "nonpayable",
      "type": "function"
    },
    {
      "inputs": [],
      "name": "trainingCount",
      "outputs": [
        {
          "internalType": "uint256",
          "name": "",
          "type": "uint256"
        }
      ],
      "stateMutability": "view",
      "type": "function"
    },
    {
      "inputs": [
        {
          "internalType": "address",
          "name": "newOwner",
          "type": "address"
        }
      ],
      "name": "transferOwnership",
      "outputs": [],
      "stateMutability": "nonpayable",
      "type": "function"
    }
  ],
  "transactionHash": "0xa3e642636d370d651faf662e9dbf4004f15049cc92b4afea4a8c9f2ed208e385",
  "args": [
    "0xf5278628a82C12907e198d42F7b99968D24135D5"
  ],
  "numDeployments": 1,
  "solcInputHash": "1c6fbb2b90a95a14e7b51b5ec20c94f1",
  "bytecode": "0x608060405234801561001057600080fd5b506040516104a13803806104a183398101604081905261002f916100c3565b806001600160a01b03811661005e57604051631e4fbdf760e01b81526000600482015260240160405180910390fd5b61006781610073565b505060006001556100f3565b600080546001600160a01b038381166001600160a01b0319831681178455604051919092169283917f8be0079c531659141344cd1fd0a4f28419497f9722a3daafe3b4186f6b6457e09190a35050565b6000602082840312156100d557600080fd5b81516001600160a01b03811681146100ec57600080fd5b9392505050565b61039f806101026000396000f3fe608060405234801561001057600080fd5b50600436106100575760003560e01c80632c2cb8381461005c578063715018a6146100785780638da5cb5b14610082578063db65a42b1461009d578063f2fde38b146100b0575b600080fd5b61006560015481565b6040519081526020015b60405180910390f35b6100806100c3565b005b6000546040516001600160a01b03909116815260200161006f565b6100806100ab366004610202565b6100d7565b6100806100be3660046102bd565b61012c565b6100cb61016f565b6100d5600061019c565b565b600180549060006100e7836102ed565b9190505550817fbe8474f46f152def007daccc49cb9b5c7e8c25d32ed484741f4094362f34a0e082600154604051610120929190610314565b60405180910390a25050565b61013461016f565b6001600160a01b03811661016357604051631e4fbdf760e01b8152600060048201526024015b60405180910390fd5b61016c8161019c565b50565b6000546001600160a01b031633146100d55760405163118cdaa760e01b815233600482015260240161015a565b600080546001600160a01b038381166001600160a01b0319831681178455604051919092169283917f8be0079c531659141344cd1fd0a4f28419497f9722a3daafe3b4186f6b6457e09190a35050565b634e487b7160e01b600052604160045260246000fd5b6000806040838503121561021557600080fd5b82359150602083013567ffffffffffffffff8082111561023457600080fd5b818501915085601f83011261024857600080fd5b81358181111561025a5761025a6101ec565b604051601f8201601f19908116603f01168101908382118183101715610282576102826101ec565b8160405282815288602084870101111561029b57600080fd5b8260208601602083013760006020848301015280955050505050509250929050565b6000602082840312156102cf57600080fd5b81356001600160a01b03811681146102e657600080fd5b9392505050565b60006001820161030d57634e487b7160e01b600052601160045260246000fd5b5060010190565b604081526000835180604084015260005b818110156103425760208187018101516060868401015201610325565b506000606082850101526060601f19601f830116840101915050826020830152939250505056fea264697066735822122070b69366e06180f003ce30dca9d7405c811b8e28afddaf1410456c22be7835b564736f6c63430008140033",
  "devdoc": {
    "errors": {
      "OwnableInvalidOwner(address)": [
        {
          "details": "The owner is not a valid owner account. (eg. `address(0)`)"
        }
      ],
      "OwnableUnauthorizedAccount(address)": [
        {
          "details": "The caller account is not authorized to perform an operation."
        }
      ]
    },
    "kind": "dev",
    "methods": {
      "owner()": {
        "details": "Returns the address of the current owner."
      },
      "renounceOwnership()": {
        "details": "Leaves the contract without owner. It will not be possible to call `onlyOwner` functions. Can only be called by the current owner. NOTE: Renouncing ownership will leave the contract without an owner, thereby disabling any functionality that is only available to the owner."
      },
      "transferOwnership(address)": {
        "details": "Transfers ownership of the contract to a new account (`newOwner`). Can only be called by the current owner."
      }
    },
    "version": 1
  },
  "userdoc": {
    "kind": "user",
    "methods": {},
    "version": 1
  },
  "storageLayout": {
    "storage": [
      {
        "astId": 8,
        "contract": "contracts/AITrainer.sol:AITrainer",
        "label": "_owner",
        "offset": 0,
        "slot": "0",
        "type": "t_address"
      },
      {
        "astId": 184,
        "contract": "contracts/AITrainer.sol:AITrainer",
        "label": "trainingCount",
        "offset": 0,
        "slot": "1",
        "type": "t_uint256"
      }
    ],
    "types": {
      "t_address": {
        "encoding": "inplace",
        "label": "address",
        "numberOfBytes": "20"
      },
      "t_uint256": {
        "encoding": "inplace",
        "label": "uint256",
        "numberOfBytes": "32"
      }
    }
  }
}